{
    "_format": "hh-sol-artifact-1",
    "contractName": "Marketplace",
    "sourceName": "contracts/Marketplace.sol",
    "abi": [
        {
            "inputs": [
                {
                    "internalType": "uint256",
                    "name": "royalty",
                    "type": "uint256"
                }
            ],
            "stateMutability": "nonpayable",
            "type": "constructor"
        },
        {
            "anonymous": false,
            "inputs": [
                {
                    "indexed": true,
                    "internalType": "address",
                    "name": "nftAddress",
                    "type": "address"
                },
                {
                    "indexed": true,
                    "internalType": "uint256",
                    "name": "tokenId",
                    "type": "uint256"
                },
                {
                    "indexed": true,
                    "internalType": "uint256",
                    "name": "itemId",
                    "type": "uint256"
                },
                {
                    "indexed": false,
                    "internalType": "address",
                    "name": "creator",
                    "type": "address"
                },
                {
                    "indexed": false,
                    "internalType": "address",
                    "name": "seller",
                    "type": "address"
                },
                {
                    "indexed": false,
                    "internalType": "address",
                    "name": "owner",
                    "type": "address"
                },
                {
                    "indexed": false,
                    "internalType": "uint256",
                    "name": "price",
                    "type": "uint256"
                },
                {
                    "indexed": false,
                    "internalType": "bool",
                    "name": "isListed",
                    "type": "bool"
                }
            ],
            "name": "ItemListed",
            "type": "event"
        },
        {
            "anonymous": false,
            "inputs": [
                {
                    "indexed": true,
                    "internalType": "address",
                    "name": "previousOwner",
                    "type": "address"
                },
                {
                    "indexed": true,
                    "internalType": "address",
                    "name": "newOwner",
                    "type": "address"
                }
            ],
            "name": "OwnershipTransferred",
            "type": "event"
        },
        {
            "inputs": [
                {
                    "internalType": "uint256",
                    "name": "_itemId",
                    "type": "uint256"
                }
            ],
            "name": "delistItem",
            "outputs": [],
            "stateMutability": "nonpayable",
            "type": "function"
        },
        {
            "inputs": [
                {
                    "internalType": "uint256",
                    "name": "_itemId",
                    "type": "uint256"
                }
            ],
            "name": "getItemById",
            "outputs": [
                {
                    "components": [
                        {
                            "internalType": "address",
                            "name": "nftAddress",
                            "type": "address"
                        },
                        {
                            "internalType": "uint256",
                            "name": "tokenId",
                            "type": "uint256"
                        },
                        {
                            "internalType": "uint256",
                            "name": "itemId",
                            "type": "uint256"
                        },
                        {
                            "internalType": "address",
                            "name": "creator",
                            "type": "address"
                        },
                        {
                            "internalType": "address payable",
                            "name": "seller",
                            "type": "address"
                        },
                        {
                            "internalType": "address payable",
                            "name": "owner",
                            "type": "address"
                        },
                        {
                            "internalType": "uint256",
                            "name": "price",
                            "type": "uint256"
                        },
                        {
                            "internalType": "bool",
                            "name": "isListed",
                            "type": "bool"
                        }
                    ],
                    "internalType": "struct Marketplace.Item",
                    "name": "",
                    "type": "tuple"
                }
            ],
            "stateMutability": "view",
            "type": "function"
        },
        {
            "inputs": [
                {
                    "internalType": "uint256",
                    "name": "_itemId",
                    "type": "uint256"
                }
            ],
            "name": "getItemPrice",
            "outputs": [
                {
                    "internalType": "uint256",
                    "name": "price",
                    "type": "uint256"
                }
            ],
            "stateMutability": "view",
            "type": "function"
        },
        {
            "inputs": [],
            "name": "getItemsCreated",
            "outputs": [
                {
                    "components": [
                        {
                            "internalType": "address",
                            "name": "nftAddress",
                            "type": "address"
                        },
                        {
                            "internalType": "uint256",
                            "name": "tokenId",
                            "type": "uint256"
                        },
                        {
                            "internalType": "uint256",
                            "name": "itemId",
                            "type": "uint256"
                        },
                        {
                            "internalType": "address",
                            "name": "creator",
                            "type": "address"
                        },
                        {
                            "internalType": "address payable",
                            "name": "seller",
                            "type": "address"
                        },
                        {
                            "internalType": "address payable",
                            "name": "owner",
                            "type": "address"
                        },
                        {
                            "internalType": "uint256",
                            "name": "price",
                            "type": "uint256"
                        },
                        {
                            "internalType": "bool",
                            "name": "isListed",
                            "type": "bool"
                        }
                    ],
                    "internalType": "struct Marketplace.Item[]",
                    "name": "",
                    "type": "tuple[]"
                }
            ],
            "stateMutability": "view",
            "type": "function"
        },
        {
            "inputs": [],
            "name": "getItemsOwned",
            "outputs": [
                {
                    "components": [
                        {
                            "internalType": "address",
                            "name": "nftAddress",
                            "type": "address"
                        },
                        {
                            "internalType": "uint256",
                            "name": "tokenId",
                            "type": "uint256"
                        },
                        {
                            "internalType": "uint256",
                            "name": "itemId",
                            "type": "uint256"
                        },
                        {
                            "internalType": "address",
                            "name": "creator",
                            "type": "address"
                        },
                        {
                            "internalType": "address payable",
                            "name": "seller",
                            "type": "address"
                        },
                        {
                            "internalType": "address payable",
                            "name": "owner",
                            "type": "address"
                        },
                        {
                            "internalType": "uint256",
                            "name": "price",
                            "type": "uint256"
                        },
                        {
                            "internalType": "bool",
                            "name": "isListed",
                            "type": "bool"
                        }
                    ],
                    "internalType": "struct Marketplace.Item[]",
                    "name": "",
                    "type": "tuple[]"
                }
            ],
            "stateMutability": "view",
            "type": "function"
        },
        {
            "inputs": [],
            "name": "getListedItems",
            "outputs": [
                {
                    "components": [
                        {
                            "internalType": "address",
                            "name": "nftAddress",
                            "type": "address"
                        },
                        {
                            "internalType": "uint256",
                            "name": "tokenId",
                            "type": "uint256"
                        },
                        {
                            "internalType": "uint256",
                            "name": "itemId",
                            "type": "uint256"
                        },
                        {
                            "internalType": "address",
                            "name": "creator",
                            "type": "address"
                        },
                        {
                            "internalType": "address payable",
                            "name": "seller",
                            "type": "address"
                        },
                        {
                            "internalType": "address payable",
                            "name": "owner",
                            "type": "address"
                        },
                        {
                            "internalType": "uint256",
                            "name": "price",
                            "type": "uint256"
                        },
                        {
                            "internalType": "bool",
                            "name": "isListed",
                            "type": "bool"
                        }
                    ],
                    "internalType": "struct Marketplace.Item[]",
                    "name": "",
                    "type": "tuple[]"
                }
            ],
            "stateMutability": "view",
            "type": "function"
        },
        {
            "inputs": [
                {
                    "internalType": "address",
                    "name": "nftAddress",
                    "type": "address"
                },
                {
                    "internalType": "uint256",
                    "name": "_tokenId",
                    "type": "uint256"
                },
                {
                    "internalType": "uint256",
                    "name": "_quantity",
                    "type": "uint256"
                },
                {
                    "internalType": "uint256",
                    "name": "price",
                    "type": "uint256"
                }
            ],
            "name": "listItemsForSale",
            "outputs": [],
            "stateMutability": "nonpayable",
            "type": "function"
        },
        {
            "inputs": [
                {
                    "internalType": "address",
                    "name": "",
                    "type": "address"
                },
                {
                    "internalType": "address",
                    "name": "",
                    "type": "address"
                },
                {
                    "internalType": "uint256[]",
                    "name": "",
                    "type": "uint256[]"
                },
                {
                    "internalType": "uint256[]",
                    "name": "",
                    "type": "uint256[]"
                },
                {
                    "internalType": "bytes",
                    "name": "",
                    "type": "bytes"
                }
            ],
            "name": "onERC1155BatchReceived",
            "outputs": [
                {
                    "internalType": "bytes4",
                    "name": "",
                    "type": "bytes4"
                }
            ],
            "stateMutability": "nonpayable",
            "type": "function"
        },
        {
            "inputs": [
                {
                    "internalType": "address",
                    "name": "",
                    "type": "address"
                },
                {
                    "internalType": "address",
                    "name": "",
                    "type": "address"
                },
                {
                    "internalType": "uint256",
                    "name": "",
                    "type": "uint256"
                },
                {
                    "internalType": "uint256",
                    "name": "",
                    "type": "uint256"
                },
                {
                    "internalType": "bytes",
                    "name": "",
                    "type": "bytes"
                }
            ],
            "name": "onERC1155Received",
            "outputs": [
                {
                    "internalType": "bytes4",
                    "name": "",
                    "type": "bytes4"
                }
            ],
            "stateMutability": "nonpayable",
            "type": "function"
        },
        {
            "inputs": [],
            "name": "owner",
            "outputs": [
                {
                    "internalType": "address",
                    "name": "",
                    "type": "address"
                }
            ],
            "stateMutability": "view",
            "type": "function"
        },
        {
            "inputs": [
                {
                    "internalType": "address",
                    "name": "nftAddress",
                    "type": "address"
                },
                {
                    "internalType": "uint256",
                    "name": "_itemId",
                    "type": "uint256"
                }
            ],
            "name": "purchaseItem",
            "outputs": [],
            "stateMutability": "payable",
            "type": "function"
        },
        {
            "inputs": [
                {
                    "internalType": "address",
                    "name": "nftAddress",
                    "type": "address"
                },
                {
                    "internalType": "uint256",
                    "name": "_itemId",
                    "type": "uint256"
                },
                {
                    "internalType": "uint256",
                    "name": "listPrice",
                    "type": "uint256"
                }
            ],
            "name": "relistItem",
            "outputs": [],
            "stateMutability": "nonpayable",
            "type": "function"
        },
        {
            "inputs": [],
            "name": "renounceOwnership",
            "outputs": [],
            "stateMutability": "nonpayable",
            "type": "function"
        },
        {
            "inputs": [],
            "name": "royalties",
            "outputs": [
                {
                    "internalType": "uint256",
                    "name": "",
                    "type": "uint256"
                }
            ],
            "stateMutability": "view",
            "type": "function"
        },
        {
            "inputs": [
                {
                    "internalType": "bytes4",
                    "name": "interfaceId",
                    "type": "bytes4"
                }
            ],
            "name": "supportsInterface",
            "outputs": [
                {
                    "internalType": "bool",
                    "name": "",
                    "type": "bool"
                }
            ],
            "stateMutability": "view",
            "type": "function"
        },
        {
            "inputs": [
                {
                    "internalType": "address",
                    "name": "newOwner",
                    "type": "address"
                }
            ],
            "name": "transferOwnership",
            "outputs": [],
            "stateMutability": "nonpayable",
            "type": "function"
        }
    ],
    "bytecode": "0x60806040523480156200001157600080fd5b506040516200381438038062003814833981810160405281019062000037919062000190565b620000576200004b620000ad60201b60201c565b620000b560201b60201c565b6001808190555033600460006101000a81548173ffffffffffffffffffffffffffffffffffffffff021916908373ffffffffffffffffffffffffffffffffffffffff1602179055508060038190555050620001e0565b600033905090565b60008060009054906101000a900473ffffffffffffffffffffffffffffffffffffffff169050816000806101000a81548173ffffffffffffffffffffffffffffffffffffffff021916908373ffffffffffffffffffffffffffffffffffffffff1602179055508173ffffffffffffffffffffffffffffffffffffffff168173ffffffffffffffffffffffffffffffffffffffff167f8be0079c531659141344cd1fd0a4f28419497f9722a3daafe3b4186f6b6457e060405160405180910390a35050565b6000815190506200018a81620001c6565b92915050565b600060208284031215620001a357600080fd5b6000620001b38482850162000179565b91505092915050565b6000819050919050565b620001d181620001bc565b8114620001dd57600080fd5b50565b61362480620001f06000396000f3fe6080604052600436106100f35760003560e01c8063bc197c811161008a578063e9fd10bb11610059578063e9fd10bb1461031b578063f053dc5c14610346578063f23a6e6114610371578063f2fde38b146103ae576100f3565b8063bc197c811461024b578063caf5069014610288578063cd2f0710146102b3578063e8b08f04146102f0576100f3565b8063449a2af3116100c6578063449a2af3146101a35780634c4df870146101cc578063715018a6146102095780638da5cb5b14610220576100f3565b806301ffc9a7146100f85780631006163114610135578063327249001461015e5780633ab6d4621461017a575b600080fd5b34801561010457600080fd5b5061011f600480360381019061011a9190612636565b6103d7565b60405161012c9190612c72565b60405180910390f35b34801561014157600080fd5b5061015c6004803603810190610157919061265f565b610451565b005b61017860048036038101906101739190612548565b610597565b005b34801561018657600080fd5b506101a1600480360381019061019c91906125d3565b610acb565b005b3480156101af57600080fd5b506101ca60048036038101906101c59190612584565b610b3e565b005b3480156101d857600080fd5b506101f360048036038101906101ee919061265f565b610e55565b6040516102009190612e84565b60405180910390f35b34801561021557600080fd5b5061021e610e75565b005b34801561022c57600080fd5b50610235610efd565b6040516102429190612b38565b60405180910390f35b34801561025757600080fd5b50610272600480360381019061026d91906123fa565b610f26565b60405161027f9190612c8d565b60405180910390f35b34801561029457600080fd5b5061029d610f3b565b6040516102aa9190612c50565b60405180910390f35b3480156102bf57600080fd5b506102da60048036038101906102d5919061265f565b6112cc565b6040516102e79190612e68565b60405180910390f35b3480156102fc57600080fd5b5061030561148b565b6040516103129190612c50565b60405180910390f35b34801561032757600080fd5b5061033061187f565b60405161033d9190612c50565b60405180910390f35b34801561035257600080fd5b5061035b611c84565b6040516103689190612e84565b60405180910390f35b34801561037d57600080fd5b50610398600480360381019061039391906124b9565b611c8a565b6040516103a59190612c8d565b60405180910390f35b3480156103ba57600080fd5b506103d560048036038101906103d091906123d1565b611c9f565b005b60007f4e2312e0000000000000000000000000000000000000000000000000000000007bffffffffffffffffffffffffffffffffffffffffffffffffffffffff1916827bffffffffffffffffffffffffffffffffffffffffffffffffffffffff1916148061044a575061044982611d97565b5b9050919050565b600115156005600083815260200190815260200160002060070160009054906101000a900460ff161515146104bb576040517f08c379a00000000000000000000000000000000000000000000000000000000081526004016104b290612e08565b60405180910390fd5b60006005600083815260200190815260200160002060050160009054906101000a900473ffffffffffffffffffffffffffffffffffffffff1690508073ffffffffffffffffffffffffffffffffffffffff163373ffffffffffffffffffffffffffffffffffffffff1614610564576040517f08c379a000000000000000000000000000000000000000000000000000000000815260040161055b90612d08565b60405180910390fd5b60006005600084815260200190815260200160002060070160006101000a81548160ff0219169083151502179055505050565b600260015414156105dd576040517f08c379a00000000000000000000000000000000000000000000000000000000081526004016105d490612e28565b60405180910390fd5b600260018190555060006005600083815260200190815260200160002060060154905060006005600084815260200190815260200160002060010154905060006005600085815260200190815260200160002060070160009054906101000a900460ff16905060006005600086815260200190815260200160002060050160009054906101000a900473ffffffffffffffffffffffffffffffffffffffff1690503373ffffffffffffffffffffffffffffffffffffffff168173ffffffffffffffffffffffffffffffffffffffff1614156106ed576040517f08c379a00000000000000000000000000000000000000000000000000000000081526004016106e490612ce8565b60405180910390fd5b6001151582151514610734576040517f08c379a000000000000000000000000000000000000000000000000000000000815260040161072b90612dc8565b60405180910390fd5b833414610776576040517f08c379a000000000000000000000000000000000000000000000000000000000815260040161076d90612e48565b60405180910390fd5b6000606434600354610788919061300e565b6107929190612fdd565b9050600081346107a29190613068565b90508773ffffffffffffffffffffffffffffffffffffffff1663f242432a30338860016040518563ffffffff1660e01b81526004016107e49493929190612ba6565b600060405180830381600087803b1580156107fe57600080fd5b505af1158015610812573d6000803e3d6000fd5b505050508773ffffffffffffffffffffffffffffffffffffffff1663a22cb4653360016040518363ffffffff1660e01b8152600401610852929190612bfe565b600060405180830381600087803b15801561086c57600080fd5b505af1158015610880573d6000803e3d6000fd5b50505050336005600089815260200190815260200160002060050160006101000a81548173ffffffffffffffffffffffffffffffffffffffff021916908373ffffffffffffffffffffffffffffffffffffffff16021790555060006005600089815260200190815260200160002060070160006101000a81548160ff0219169083151502179055506000600460009054906101000a900473ffffffffffffffffffffffffffffffffffffffff1673ffffffffffffffffffffffffffffffffffffffff168360405161095090612b23565b60006040518083038185875af1925050503d806000811461098d576040519150601f19603f3d011682016040523d82523d6000602084013e610992565b606091505b50509050806109d6576040517f08c379a00000000000000000000000000000000000000000000000000000000081526004016109cd90612de8565b60405180910390fd5b6000600560008a815260200190815260200160002060040160009054906101000a900473ffffffffffffffffffffffffffffffffffffffff1673ffffffffffffffffffffffffffffffffffffffff1683604051610a3290612b23565b60006040518083038185875af1925050503d8060008114610a6f576040519150601f19603f3d011682016040523d82523d6000602084013e610a74565b606091505b5050905080610ab8576040517f08c379a0000000000000000000000000000000000000000000000000000000008152600401610aaf90612da8565b60405180910390fd5b5050505050505050600180819055505050565b60008111610b0e576040517f08c379a0000000000000000000000000000000000000000000000000000000008152600401610b0590612ca8565b60405180910390fd5b60005b82811015610b3757610b24858584611e01565b8080610b2f90613174565b915050610b11565b5050505050565b60006005600084815260200190815260200160002060010154905060008473ffffffffffffffffffffffffffffffffffffffff1662fdd58e33846040518363ffffffff1660e01b8152600401610b95929190612c27565b60206040518083038186803b158015610bad57600080fd5b505afa158015610bc1573d6000803e3d6000fd5b505050506040513d601f19601f82011682018060405250810190610be59190612688565b9050600015156005600086815260200190815260200160002060070160009054906101000a900460ff16151514610c51576040517f08c379a0000000000000000000000000000000000000000000000000000000008152600401610c4890612d28565b60405180910390fd5b6005600085815260200190815260200160002060050160009054906101000a900473ffffffffffffffffffffffffffffffffffffffff1673ffffffffffffffffffffffffffffffffffffffff163373ffffffffffffffffffffffffffffffffffffffff1614610cf5576040517f08c379a0000000000000000000000000000000000000000000000000000000008152600401610cec90612d48565b60405180910390fd5b60008111610d38576040517f08c379a0000000000000000000000000000000000000000000000000000000008152600401610d2f90612d68565b60405180910390fd5b60016005600086815260200190815260200160002060070160006101000a81548160ff0219169083151502179055508260056000868152602001908152602001600020600601819055508473ffffffffffffffffffffffffffffffffffffffff1663f242432a33308560016040518563ffffffff1660e01b8152600401610dc29493929190612ba6565b600060405180830381600087803b158015610ddc57600080fd5b505af1158015610df0573d6000803e3d6000fd5b5050505083828673ffffffffffffffffffffffffffffffffffffffff167f1ab40ba4cd3e067aecab0007bbb575203fbf732b3f16226fc740dd130ee8293233336000896001604051610e46959493929190612b53565b60405180910390a45050505050565b600060056000838152602001908152602001600020600601549050919050565b610e7d6120f0565b73ffffffffffffffffffffffffffffffffffffffff16610e9b610efd565b73ffffffffffffffffffffffffffffffffffffffff1614610ef1576040517f08c379a0000000000000000000000000000000000000000000000000000000008152600401610ee890612d88565b60405180910390fd5b610efb60006120f8565b565b60008060009054906101000a900473ffffffffffffffffffffffffffffffffffffffff16905090565b600063bc197c8160e01b905095945050505050565b60606000610f4960026121bc565b905060008060005b83811015610fb7576001151560056000600184610f6e9190612f87565b815260200190815260200160002060070160009054906101000a900460ff1615151415610fa4578280610fa090613174565b9350505b8080610faf90613174565b915050610f51565b5060008267ffffffffffffffff811115610ffa577f4e487b7100000000000000000000000000000000000000000000000000000000600052604160045260246000fd5b60405190808252806020026020018201604052801561103357816020015b6110206121e0565b8152602001906001900390816110185790505b50905060005b848110156112c15760011515600560006001846110569190612f87565b815260200190815260200160002060070160009054906101000a900460ff16151514156112ae576000600560006001846110909190612f87565b8152602001908152602001600020600201549050600060056000838152602001908152602001600020905080604051806101000160405290816000820160009054906101000a900473ffffffffffffffffffffffffffffffffffffffff1673ffffffffffffffffffffffffffffffffffffffff1673ffffffffffffffffffffffffffffffffffffffff16815260200160018201548152602001600282015481526020016003820160009054906101000a900473ffffffffffffffffffffffffffffffffffffffff1673ffffffffffffffffffffffffffffffffffffffff1673ffffffffffffffffffffffffffffffffffffffff1681526020016004820160009054906101000a900473ffffffffffffffffffffffffffffffffffffffff1673ffffffffffffffffffffffffffffffffffffffff1673ffffffffffffffffffffffffffffffffffffffff1681526020016005820160009054906101000a900473ffffffffffffffffffffffffffffffffffffffff1673ffffffffffffffffffffffffffffffffffffffff1673ffffffffffffffffffffffffffffffffffffffff168152602001600682015481526020016007820160009054906101000a900460ff161515151581525050848681518110611292577f4e487b7100000000000000000000000000000000000000000000000000000000600052603260045260246000fd5b602002602001018190525084806112a890613174565b95505050505b80806112b990613174565b915050611039565b508094505050505090565b6112d46121e0565b60056000838152602001908152602001600020604051806101000160405290816000820160009054906101000a900473ffffffffffffffffffffffffffffffffffffffff1673ffffffffffffffffffffffffffffffffffffffff1673ffffffffffffffffffffffffffffffffffffffff16815260200160018201548152602001600282015481526020016003820160009054906101000a900473ffffffffffffffffffffffffffffffffffffffff1673ffffffffffffffffffffffffffffffffffffffff1673ffffffffffffffffffffffffffffffffffffffff1681526020016004820160009054906101000a900473ffffffffffffffffffffffffffffffffffffffff1673ffffffffffffffffffffffffffffffffffffffff1673ffffffffffffffffffffffffffffffffffffffff1681526020016005820160009054906101000a900473ffffffffffffffffffffffffffffffffffffffff1673ffffffffffffffffffffffffffffffffffffffff1673ffffffffffffffffffffffffffffffffffffffff168152602001600682015481526020016007820160009054906101000a900460ff1615151515815250509050919050565b6060600061149960026121bc565b90506000805b8281101561153f573373ffffffffffffffffffffffffffffffffffffffff16600560006001846114cf9190612f87565b815260200190815260200160002060030160009054906101000a900473ffffffffffffffffffffffffffffffffffffffff1673ffffffffffffffffffffffffffffffffffffffff16141561152c57818061152890613174565b9250505b808061153790613174565b91505061149f565b5060008167ffffffffffffffff811115611582577f4e487b7100000000000000000000000000000000000000000000000000000000600052604160045260246000fd5b6040519080825280602002602001820160405280156115bb57816020015b6115a86121e0565b8152602001906001900390816115a05790505b50905060005b83811015611875573373ffffffffffffffffffffffffffffffffffffffff16600560006001846115f19190612f87565b815260200190815260200160002060030160009054906101000a900473ffffffffffffffffffffffffffffffffffffffff1673ffffffffffffffffffffffffffffffffffffffff161415611862576000600560006001846116529190612f87565b8152602001908152602001600020600201549050600060056000838152602001908152602001600020905080604051806101000160405290816000820160009054906101000a900473ffffffffffffffffffffffffffffffffffffffff1673ffffffffffffffffffffffffffffffffffffffff1673ffffffffffffffffffffffffffffffffffffffff16815260200160018201548152602001600282015481526020016003820160009054906101000a900473ffffffffffffffffffffffffffffffffffffffff1673ffffffffffffffffffffffffffffffffffffffff1673ffffffffffffffffffffffffffffffffffffffff1681526020016004820160009054906101000a900473ffffffffffffffffffffffffffffffffffffffff1673ffffffffffffffffffffffffffffffffffffffff1673ffffffffffffffffffffffffffffffffffffffff1681526020016005820160009054906101000a900473ffffffffffffffffffffffffffffffffffffffff1673ffffffffffffffffffffffffffffffffffffffff1673ffffffffffffffffffffffffffffffffffffffff168152602001600682015481526020016007820160009054906101000a900460ff161515151581525050848481518110611854577f4e487b7100000000000000000000000000000000000000000000000000000000600052603260045260246000fd5b602002602001018190525050505b808061186d90613174565b9150506115c1565b5080935050505090565b6060600061188d60026121bc565b905060008060005b83811015611935573373ffffffffffffffffffffffffffffffffffffffff16600560006001846118c59190612f87565b815260200190815260200160002060050160009054906101000a900473ffffffffffffffffffffffffffffffffffffffff1673ffffffffffffffffffffffffffffffffffffffff16141561192257828061191e90613174565b9350505b808061192d90613174565b915050611895565b5060008267ffffffffffffffff811115611978577f4e487b7100000000000000000000000000000000000000000000000000000000600052604160045260246000fd5b6040519080825280602002602001820160405280156119b157816020015b61199e6121e0565b8152602001906001900390816119965790505b50905060005b84811015611c79573373ffffffffffffffffffffffffffffffffffffffff16600560006001846119e79190612f87565b815260200190815260200160002060050160009054906101000a900473ffffffffffffffffffffffffffffffffffffffff1673ffffffffffffffffffffffffffffffffffffffff161415611c6657600060056000600184611a489190612f87565b8152602001908152602001600020600201549050600060056000838152602001908152602001600020905080604051806101000160405290816000820160009054906101000a900473ffffffffffffffffffffffffffffffffffffffff1673ffffffffffffffffffffffffffffffffffffffff1673ffffffffffffffffffffffffffffffffffffffff16815260200160018201548152602001600282015481526020016003820160009054906101000a900473ffffffffffffffffffffffffffffffffffffffff1673ffffffffffffffffffffffffffffffffffffffff1673ffffffffffffffffffffffffffffffffffffffff1681526020016004820160009054906101000a900473ffffffffffffffffffffffffffffffffffffffff1673ffffffffffffffffffffffffffffffffffffffff1673ffffffffffffffffffffffffffffffffffffffff1681526020016005820160009054906101000a900473ffffffffffffffffffffffffffffffffffffffff1673ffffffffffffffffffffffffffffffffffffffff1673ffffffffffffffffffffffffffffffffffffffff168152602001600682015481526020016007820160009054906101000a900460ff161515151581525050848681518110611c4a577f4e487b7100000000000000000000000000000000000000000000000000000000600052603260045260246000fd5b60200260200101819052508480611c6090613174565b95505050505b8080611c7190613174565b9150506119b7565b508094505050505090565b60035481565b600063f23a6e6160e01b905095945050505050565b611ca76120f0565b73ffffffffffffffffffffffffffffffffffffffff16611cc5610efd565b73ffffffffffffffffffffffffffffffffffffffff1614611d1b576040517f08c379a0000000000000000000000000000000000000000000000000000000008152600401611d1290612d88565b60405180910390fd5b600073ffffffffffffffffffffffffffffffffffffffff168173ffffffffffffffffffffffffffffffffffffffff161415611d8b576040517f08c379a0000000000000000000000000000000000000000000000000000000008152600401611d8290612cc8565b60405180910390fd5b611d94816120f8565b50565b60007f01ffc9a7000000000000000000000000000000000000000000000000000000007bffffffffffffffffffffffffffffffffffffffffffffffffffffffff1916827bffffffffffffffffffffffffffffffffffffffffffffffffffffffff1916149050919050565b611e0b60026121ca565b6000611e1760026121bc565b90506040518061010001604052808573ffffffffffffffffffffffffffffffffffffffff1681526020018481526020018281526020013373ffffffffffffffffffffffffffffffffffffffff1681526020013373ffffffffffffffffffffffffffffffffffffffff1681526020013373ffffffffffffffffffffffffffffffffffffffff168152602001838152602001600115158152506005600083815260200190815260200160002060008201518160000160006101000a81548173ffffffffffffffffffffffffffffffffffffffff021916908373ffffffffffffffffffffffffffffffffffffffff160217905550602082015181600101556040820151816002015560608201518160030160006101000a81548173ffffffffffffffffffffffffffffffffffffffff021916908373ffffffffffffffffffffffffffffffffffffffff16021790555060808201518160040160006101000a81548173ffffffffffffffffffffffffffffffffffffffff021916908373ffffffffffffffffffffffffffffffffffffffff16021790555060a08201518160050160006101000a81548173ffffffffffffffffffffffffffffffffffffffff021916908373ffffffffffffffffffffffffffffffffffffffff16021790555060c0820151816006015560e08201518160070160006101000a81548160ff0219169083151502179055509050508373ffffffffffffffffffffffffffffffffffffffff1663f242432a33308660016040518563ffffffff1660e01b815260040161205e9493929190612ba6565b600060405180830381600087803b15801561207857600080fd5b505af115801561208c573d6000803e3d6000fd5b5050505080838573ffffffffffffffffffffffffffffffffffffffff167f1ab40ba4cd3e067aecab0007bbb575203fbf732b3f16226fc740dd130ee82932333360008860016040516120e2959493929190612b53565b60405180910390a450505050565b600033905090565b60008060009054906101000a900473ffffffffffffffffffffffffffffffffffffffff169050816000806101000a81548173ffffffffffffffffffffffffffffffffffffffff021916908373ffffffffffffffffffffffffffffffffffffffff1602179055508173ffffffffffffffffffffffffffffffffffffffff168173ffffffffffffffffffffffffffffffffffffffff167f8be0079c531659141344cd1fd0a4f28419497f9722a3daafe3b4186f6b6457e060405160405180910390a35050565b600081600001549050919050565b6001816000016000828254019250508190555050565b604051806101000160405280600073ffffffffffffffffffffffffffffffffffffffff1681526020016000815260200160008152602001600073ffffffffffffffffffffffffffffffffffffffff168152602001600073ffffffffffffffffffffffffffffffffffffffff168152602001600073ffffffffffffffffffffffffffffffffffffffff168152602001600081526020016000151581525090565b600061229261228d84612ec4565b612e9f565b905080838252602082019050828560208602820111156122b157600080fd5b60005b858110156122e157816122c788826123a7565b8452602084019350602083019250506001810190506122b4565b5050509392505050565b60006122fe6122f984612ef0565b612e9f565b90508281526020810184848401111561231657600080fd5b612321848285613134565b509392505050565b600081359050612338816135a9565b92915050565b600082601f83011261234f57600080fd5b813561235f84826020860161227f565b91505092915050565b600081359050612377816135c0565b92915050565b600082601f83011261238e57600080fd5b813561239e8482602086016122eb565b91505092915050565b6000813590506123b6816135d7565b92915050565b6000815190506123cb816135d7565b92915050565b6000602082840312156123e357600080fd5b60006123f184828501612329565b91505092915050565b600080600080600060a0868803121561241257600080fd5b600061242088828901612329565b955050602061243188828901612329565b945050604086013567ffffffffffffffff81111561244e57600080fd5b61245a8882890161233e565b935050606086013567ffffffffffffffff81111561247757600080fd5b6124838882890161233e565b925050608086013567ffffffffffffffff8111156124a057600080fd5b6124ac8882890161237d565b9150509295509295909350565b600080600080600060a086880312156124d157600080fd5b60006124df88828901612329565b95505060206124f088828901612329565b9450506040612501888289016123a7565b9350506060612512888289016123a7565b925050608086013567ffffffffffffffff81111561252f57600080fd5b61253b8882890161237d565b9150509295509295909350565b6000806040838503121561255b57600080fd5b600061256985828601612329565b925050602061257a858286016123a7565b9150509250929050565b60008060006060848603121561259957600080fd5b60006125a786828701612329565b93505060206125b8868287016123a7565b92505060406125c9868287016123a7565b9150509250925092565b600080600080608085870312156125e957600080fd5b60006125f787828801612329565b9450506020612608878288016123a7565b9350506040612619878288016123a7565b925050606061262a878288016123a7565b91505092959194509250565b60006020828403121561264857600080fd5b600061265684828501612368565b91505092915050565b60006020828403121561267157600080fd5b600061267f848285016123a7565b91505092915050565b60006020828403121561269a57600080fd5b60006126a8848285016123bc565b91505092915050565b60006126bd83836129c1565b6101008301905092915050565b6126d3816130ae565b82525050565b6126e28161309c565b82525050565b6126f18161309c565b82525050565b600061270282612f31565b61270c8185612f49565b935061271783612f21565b8060005b8381101561274857815161272f88826126b1565b975061273a83612f3c565b92505060018101905061271b565b5085935050505092915050565b61275e816130c0565b82525050565b61276d816130c0565b82525050565b61277c816130cc565b82525050565b61278b81613122565b82525050565b600061279e602483612f76565b91506127a98261325b565b604082019050919050565b60006127c1602683612f76565b91506127cc826132aa565b604082019050919050565b60006127e4600483612f5a565b91506127ef826132f9565b602082019050919050565b6000612807602783612f76565b915061281282613322565b604082019050919050565b600061282a601f83612f76565b915061283582613371565b602082019050919050565b600061284d601683612f76565b91506128588261339a565b602082019050919050565b6000612870601b83612f76565b915061287b826133c3565b602082019050919050565b6000612893601e83612f76565b915061289e826133ec565b602082019050919050565b60006128b6602083612f76565b91506128c182613415565b602082019050919050565b60006128d9602883612f76565b91506128e48261343e565b604082019050919050565b60006128fc601f83612f76565b91506129078261348d565b602082019050919050565b600061291f602c83612f76565b915061292a826134b6565b604082019050919050565b6000612942600083612f6b565b915061294d82613505565b600082019050919050565b6000612965601383612f76565b915061297082613508565b602082019050919050565b6000612988601f83612f76565b915061299382613531565b602082019050919050565b60006129ab602a83612f76565b91506129b68261355a565b604082019050919050565b610100820160008201516129d860008501826126d9565b5060208201516129eb6020850182612b05565b5060408201516129fe6040850182612b05565b506060820151612a1160608501826126d9565b506080820151612a2460808501826126ca565b5060a0820151612a3760a08501826126ca565b5060c0820151612a4a60c0850182612b05565b5060e0820151612a5d60e0850182612755565b50505050565b61010082016000820151612a7a60008501826126d9565b506020820151612a8d6020850182612b05565b506040820151612aa06040850182612b05565b506060820151612ab360608501826126d9565b506080820151612ac660808501826126ca565b5060a0820151612ad960a08501826126ca565b5060c0820151612aec60c0850182612b05565b5060e0820151612aff60e0850182612755565b50505050565b612b0e81613118565b82525050565b612b1d81613118565b82525050565b6000612b2e82612935565b9150819050919050565b6000602082019050612b4d60008301846126e8565b92915050565b600060a082019050612b6860008301886126e8565b612b7560208301876126e8565b612b8260408301866126e8565b612b8f6060830185612b14565b612b9c6080830184612764565b9695505050505050565b600060a082019050612bbb60008301876126e8565b612bc860208301866126e8565b612bd56040830185612b14565b612be26060830184612782565b8181036080830152612bf3816127d7565b905095945050505050565b6000604082019050612c1360008301856126e8565b612c206020830184612764565b9392505050565b6000604082019050612c3c60008301856126e8565b612c496020830184612b14565b9392505050565b60006020820190508181036000830152612c6a81846126f7565b905092915050565b6000602082019050612c876000830184612764565b92915050565b6000602082019050612ca26000830184612773565b92915050565b60006020820190508181036000830152612cc181612791565b9050919050565b60006020820190508181036000830152612ce1816127b4565b9050919050565b60006020820190508181036000830152612d01816127fa565b9050919050565b60006020820190508181036000830152612d218161281d565b9050919050565b60006020820190508181036000830152612d4181612840565b9050919050565b60006020820190508181036000830152612d6181612863565b9050919050565b60006020820190508181036000830152612d8181612886565b9050919050565b60006020820190508181036000830152612da1816128a9565b9050919050565b60006020820190508181036000830152612dc1816128cc565b9050919050565b60006020820190508181036000830152612de1816128ef565b9050919050565b60006020820190508181036000830152612e0181612912565b9050919050565b60006020820190508181036000830152612e2181612958565b9050919050565b60006020820190508181036000830152612e418161297b565b9050919050565b60006020820190508181036000830152612e618161299e565b9050919050565b600061010082019050612e7e6000830184612a63565b92915050565b6000602082019050612e996000830184612b14565b92915050565b6000612ea9612eba565b9050612eb58282613143565b919050565b6000604051905090565b600067ffffffffffffffff821115612edf57612ede61321b565b5b602082029050602081019050919050565b600067ffffffffffffffff821115612f0b57612f0a61321b565b5b612f148261324a565b9050602081019050919050565b6000819050602082019050919050565b600081519050919050565b6000602082019050919050565b600082825260208201905092915050565b600082825260208201905092915050565b600081905092915050565b600082825260208201905092915050565b6000612f9282613118565b9150612f9d83613118565b9250827fffffffffffffffffffffffffffffffffffffffffffffffffffffffffffffffff03821115612fd257612fd16131bd565b5b828201905092915050565b6000612fe882613118565b9150612ff383613118565b925082613003576130026131ec565b5b828204905092915050565b600061301982613118565b915061302483613118565b9250817fffffffffffffffffffffffffffffffffffffffffffffffffffffffffffffffff048311821515161561305d5761305c6131bd565b5b828202905092915050565b600061307382613118565b915061307e83613118565b925082821015613091576130906131bd565b5b828203905092915050565b60006130a7826130f8565b9050919050565b60006130b9826130f8565b9050919050565b60008115159050919050565b60007fffffffff0000000000000000000000000000000000000000000000000000000082169050919050565b600073ffffffffffffffffffffffffffffffffffffffff82169050919050565b6000819050919050565b600061312d82613118565b9050919050565b82818337600083830152505050565b61314c8261324a565b810181811067ffffffffffffffff8211171561316b5761316a61321b565b5b80604052505050565b600061317f82613118565b91507fffffffffffffffffffffffffffffffffffffffffffffffffffffffffffffffff8214156131b2576131b16131bd565b5b600182019050919050565b7f4e487b7100000000000000000000000000000000000000000000000000000000600052601160045260246000fd5b7f4e487b7100000000000000000000000000000000000000000000000000000000600052601260045260246000fd5b7f4e487b7100000000000000000000000000000000000000000000000000000000600052604160045260246000fd5b6000601f19601f8301169050919050565b7f4974656d207072696365206d7573742062652067726561746572207468616e2060008201527f7a65726f00000000000000000000000000000000000000000000000000000000602082015250565b7f4f776e61626c653a206e6577206f776e657220697320746865207a65726f206160008201527f6464726573730000000000000000000000000000000000000000000000000000602082015250565b7f3078303000000000000000000000000000000000000000000000000000000000600082015250565b7f427579657220616e642053656c6c657220617265207468652073616d6520616460008201527f6472657373657300000000000000000000000000000000000000000000000000602082015250565b7f6d73672073656e646572206973206e6f74206f776e6572206f66206974656d00600082015250565b7f4974656d20697320616c7265616479206c697374656400000000000000000000600082015250565b7f43616c6c6572206973206e6f74206f776e6572206f66206974656d0000000000600082015250565b7f43616c6c657220646f6573206e6f74206f776e2074686520746f6b656e730000600082015250565b7f4f776e61626c653a2063616c6c6572206973206e6f7420746865206f776e6572600082015250565b7f4661696c656420746f207472616e736665722073616c6520707269636520746f60008201527f2073656c6c65722e000000000000000000000000000000000000000000000000602082015250565b7f4974656d20726571756573746564206973206e6f7420666f722073616c652e00600082015250565b7f4661696c656420746f207472616e7366657220726f79616c7469657320746f2060008201527f6d61726b6574706c6163652e0000000000000000000000000000000000000000602082015250565b50565b7f4974656d206e6f74206c69737465642079657400000000000000000000000000600082015250565b7f5265656e7472616e637947756172643a207265656e7472616e742063616c6c00600082015250565b7f506c65617365207375626d69742074686520636f727265637420616d6f756e7460008201527f206f662065746865722e00000000000000000000000000000000000000000000602082015250565b6135b28161309c565b81146135bd57600080fd5b50565b6135c9816130cc565b81146135d457600080fd5b50565b6135e081613118565b81146135eb57600080fd5b5056fea264697066735822122009fff082f641144a932f73b058a239ca0b5eace0a4f60c4ed84cf61d2e4d9c3c64736f6c63430008030033",
    "linkReferences": {},
    "deployedLinkReferences": {}
}