{
    "_format": "hh-sol-artifact-1",
    "contractName": "NFT",
    "sourceName": "contracts/NFT.sol",
    "abi": [
        {
            "inputs": [
                {
                    "internalType": "address",
                    "name": "marketAddress",
                    "type": "address"
                }
            ],
            "stateMutability": "nonpayable",
            "type": "constructor"
        },
        {
            "anonymous": false,
            "inputs": [
                {
                    "indexed": true,
                    "internalType": "address",
                    "name": "account",
                    "type": "address"
                },
                {
                    "indexed": true,
                    "internalType": "address",
                    "name": "operator",
                    "type": "address"
                },
                {
                    "indexed": false,
                    "internalType": "bool",
                    "name": "approved",
                    "type": "bool"
                }
            ],
            "name": "ApprovalForAll",
            "type": "event"
        },
        {
            "anonymous": false,
            "inputs": [
                {
                    "indexed": true,
                    "internalType": "address",
                    "name": "previousOwner",
                    "type": "address"
                },
                {
                    "indexed": true,
                    "internalType": "address",
                    "name": "newOwner",
                    "type": "address"
                }
            ],
            "name": "OwnershipTransferred",
            "type": "event"
        },
        {
            "anonymous": false,
            "inputs": [
                {
                    "indexed": true,
                    "internalType": "address",
                    "name": "operator",
                    "type": "address"
                },
                {
                    "indexed": true,
                    "internalType": "address",
                    "name": "from",
                    "type": "address"
                },
                {
                    "indexed": true,
                    "internalType": "address",
                    "name": "to",
                    "type": "address"
                },
                {
                    "indexed": false,
                    "internalType": "uint256[]",
                    "name": "ids",
                    "type": "uint256[]"
                },
                {
                    "indexed": false,
                    "internalType": "uint256[]",
                    "name": "values",
                    "type": "uint256[]"
                }
            ],
            "name": "TransferBatch",
            "type": "event"
        },
        {
            "anonymous": false,
            "inputs": [
                {
                    "indexed": true,
                    "internalType": "address",
                    "name": "operator",
                    "type": "address"
                },
                {
                    "indexed": true,
                    "internalType": "address",
                    "name": "from",
                    "type": "address"
                },
                {
                    "indexed": true,
                    "internalType": "address",
                    "name": "to",
                    "type": "address"
                },
                {
                    "indexed": false,
                    "internalType": "uint256",
                    "name": "id",
                    "type": "uint256"
                },
                {
                    "indexed": false,
                    "internalType": "uint256",
                    "name": "value",
                    "type": "uint256"
                }
            ],
            "name": "TransferSingle",
            "type": "event"
        },
        {
            "anonymous": false,
            "inputs": [
                {
                    "indexed": false,
                    "internalType": "string",
                    "name": "value",
                    "type": "string"
                },
                {
                    "indexed": true,
                    "internalType": "uint256",
                    "name": "id",
                    "type": "uint256"
                }
            ],
            "name": "URI",
            "type": "event"
        },
        {
            "inputs": [
                {
                    "internalType": "address",
                    "name": "account",
                    "type": "address"
                },
                {
                    "internalType": "uint256",
                    "name": "id",
                    "type": "uint256"
                }
            ],
            "name": "balanceOf",
            "outputs": [
                {
                    "internalType": "uint256",
                    "name": "",
                    "type": "uint256"
                }
            ],
            "stateMutability": "view",
            "type": "function"
        },
        {
            "inputs": [
                {
                    "internalType": "address[]",
                    "name": "accounts",
                    "type": "address[]"
                },
                {
                    "internalType": "uint256[]",
                    "name": "ids",
                    "type": "uint256[]"
                }
            ],
            "name": "balanceOfBatch",
            "outputs": [
                {
                    "internalType": "uint256[]",
                    "name": "",
                    "type": "uint256[]"
                }
            ],
            "stateMutability": "view",
            "type": "function"
        },
        {
            "inputs": [
                {
                    "internalType": "uint256",
                    "name": "_tokenId",
                    "type": "uint256"
                },
                {
                    "internalType": "uint256",
                    "name": "quantity",
                    "type": "uint256"
                }
            ],
            "name": "burnTokens",
            "outputs": [],
            "stateMutability": "nonpayable",
            "type": "function"
        },
        {
            "inputs": [
                {
                    "internalType": "uint256",
                    "name": "_tokenId",
                    "type": "uint256"
                }
            ],
            "name": "checkIfOwner",
            "outputs": [
                {
                    "internalType": "bool",
                    "name": "",
                    "type": "bool"
                }
            ],
            "stateMutability": "view",
            "type": "function"
        },
        {
            "inputs": [],
            "name": "getMarketAddress",
            "outputs": [
                {
                    "internalType": "address",
                    "name": "marketAddress",
                    "type": "address"
                }
            ],
            "stateMutability": "view",
            "type": "function"
        },
        {
            "inputs": [
                {
                    "internalType": "uint256",
                    "name": "_tokenId",
                    "type": "uint256"
                }
            ],
            "name": "getTokenURI",
            "outputs": [
                {
                    "internalType": "string",
                    "name": "",
                    "type": "string"
                }
            ],
            "stateMutability": "view",
            "type": "function"
        },
        {
            "inputs": [
                {
                    "internalType": "address",
                    "name": "account",
                    "type": "address"
                },
                {
                    "internalType": "address",
                    "name": "operator",
                    "type": "address"
                }
            ],
            "name": "isApprovedForAll",
            "outputs": [
                {
                    "internalType": "bool",
                    "name": "",
                    "type": "bool"
                }
            ],
            "stateMutability": "view",
            "type": "function"
        },
        {
            "inputs": [],
            "name": "marketplaceAddress",
            "outputs": [
                {
                    "internalType": "address",
                    "name": "",
                    "type": "address"
                }
            ],
            "stateMutability": "view",
            "type": "function"
        },
        {
            "inputs": [
                {
                    "internalType": "string",
                    "name": "tokenURI",
                    "type": "string"
                },
                {
                    "internalType": "uint256",
                    "name": "quantity",
                    "type": "uint256"
                },
                {
                    "internalType": "bytes",
                    "name": "data",
                    "type": "bytes"
                }
            ],
            "name": "mintToken",
            "outputs": [
                {
                    "internalType": "uint256",
                    "name": "_tokenId",
                    "type": "uint256"
                }
            ],
            "stateMutability": "nonpayable",
            "type": "function"
        },
        {
            "inputs": [],
            "name": "owner",
            "outputs": [
                {
                    "internalType": "address",
                    "name": "",
                    "type": "address"
                }
            ],
            "stateMutability": "view",
            "type": "function"
        },
        {
            "inputs": [],
            "name": "renounceOwnership",
            "outputs": [],
            "stateMutability": "nonpayable",
            "type": "function"
        },
        {
            "inputs": [
                {
                    "internalType": "address",
                    "name": "from",
                    "type": "address"
                },
                {
                    "internalType": "address",
                    "name": "to",
                    "type": "address"
                },
                {
                    "internalType": "uint256[]",
                    "name": "ids",
                    "type": "uint256[]"
                },
                {
                    "internalType": "uint256[]",
                    "name": "amounts",
                    "type": "uint256[]"
                },
                {
                    "internalType": "bytes",
                    "name": "data",
                    "type": "bytes"
                }
            ],
            "name": "safeBatchTransferFrom",
            "outputs": [],
            "stateMutability": "nonpayable",
            "type": "function"
        },
        {
            "inputs": [
                {
                    "internalType": "address",
                    "name": "from",
                    "type": "address"
                },
                {
                    "internalType": "address",
                    "name": "to",
                    "type": "address"
                },
                {
                    "internalType": "uint256",
                    "name": "id",
                    "type": "uint256"
                },
                {
                    "internalType": "uint256",
                    "name": "amount",
                    "type": "uint256"
                },
                {
                    "internalType": "bytes",
                    "name": "data",
                    "type": "bytes"
                }
            ],
            "name": "safeTransferFrom",
            "outputs": [],
            "stateMutability": "nonpayable",
            "type": "function"
        },
        {
            "inputs": [
                {
                    "internalType": "address",
                    "name": "operator",
                    "type": "address"
                },
                {
                    "internalType": "bool",
                    "name": "approved",
                    "type": "bool"
                }
            ],
            "name": "setApprovalForAll",
            "outputs": [],
            "stateMutability": "nonpayable",
            "type": "function"
        },
        {
            "inputs": [
                {
                    "internalType": "uint256",
                    "name": "_tokenId",
                    "type": "uint256"
                },
                {
                    "internalType": "string",
                    "name": "newURI",
                    "type": "string"
                }
            ],
            "name": "setTokenURI",
            "outputs": [],
            "stateMutability": "nonpayable",
            "type": "function"
        },
        {
            "inputs": [
                {
                    "internalType": "bytes4",
                    "name": "interfaceId",
                    "type": "bytes4"
                }
            ],
            "name": "supportsInterface",
            "outputs": [
                {
                    "internalType": "bool",
                    "name": "",
                    "type": "bool"
                }
            ],
            "stateMutability": "view",
            "type": "function"
        },
        {
            "inputs": [
                {
                    "internalType": "address",
                    "name": "newOwner",
                    "type": "address"
                }
            ],
            "name": "transferOwnership",
            "outputs": [],
            "stateMutability": "nonpayable",
            "type": "function"
        },
        {
            "inputs": [
                {
                    "internalType": "uint256",
                    "name": "",
                    "type": "uint256"
                }
            ],
            "name": "uri",
            "outputs": [
                {
                    "internalType": "string",
                    "name": "",
                    "type": "string"
                }
            ],
            "stateMutability": "view",
            "type": "function"
        }
    ],
    "bytecode": "0x60806040523480156200001157600080fd5b5060405162003aec38038062003aec833981810160405281019062000037919062000298565b6040518060400160405280600981526020017f566173744f6365616e00000000000000000000000000000000000000000000008152506200007e81620000e760201b60201c565b506200009f620000936200010360201b60201c565b6200010b60201b60201c565b80600560006101000a81548173ffffffffffffffffffffffffffffffffffffffff021916908373ffffffffffffffffffffffffffffffffffffffff1602179055505062000377565b8060029080519060200190620000ff929190620001d1565b5050565b600033905090565b6000600360009054906101000a900473ffffffffffffffffffffffffffffffffffffffff16905081600360006101000a81548173ffffffffffffffffffffffffffffffffffffffff021916908373ffffffffffffffffffffffffffffffffffffffff1602179055508173ffffffffffffffffffffffffffffffffffffffff168173ffffffffffffffffffffffffffffffffffffffff167f8be0079c531659141344cd1fd0a4f28419497f9722a3daafe3b4186f6b6457e060405160405180910390a35050565b828054620001df90620002f8565b90600052602060002090601f0160209004810192826200020357600085556200024f565b82601f106200021e57805160ff19168380011785556200024f565b828001600101855582156200024f579182015b828111156200024e57825182559160200191906001019062000231565b5b5090506200025e919062000262565b5090565b5b808211156200027d57600081600090555060010162000263565b5090565b60008151905062000292816200035d565b92915050565b600060208284031215620002ab57600080fd5b6000620002bb8482850162000281565b91505092915050565b6000620002d182620002d8565b9050919050565b600073ffffffffffffffffffffffffffffffffffffffff82169050919050565b600060028204905060018216806200031157607f821691505b602082108114156200032857620003276200032e565b5b50919050565b7f4e487b7100000000000000000000000000000000000000000000000000000000600052602260045260246000fd5b6200036881620002c4565b81146200037457600080fd5b50565b61376580620003876000396000f3fe608060405234801561001057600080fd5b50600436106101155760003560e01c80638da5cb5b116100a2578063daa17f4911610071578063daa17f4914610302578063e7334fe514610320578063e985e9c51461033e578063f242432a1461036e578063f2fde38b1461038a57610115565b80638da5cb5b1461027c5780638e81c64d1461029a578063a22cb465146102b6578063bde62406146102d257610115565b80632eb2c2d6116100e95780632eb2c2d6146101c65780633bb3a24d146101e257806349d3676f146102125780634e1273f414610242578063715018a61461027257610115565b8062fdd58e1461011a57806301ffc9a71461014a5780630e89341c1461017a578063162094c4146101aa575b600080fd5b610134600480360381019061012f91906123f5565b6103a6565b6040516101419190612d31565b60405180910390f35b610164600480360381019061015f919061249d565b61046f565b6040516101719190612ad4565b60405180910390f35b610194600480360381019061018f919061256e565b610551565b6040516101a19190612aef565b60405180910390f35b6101c460048036038101906101bf9190612597565b6105e5565b005b6101e060048036038101906101db919061226b565b6106c8565b005b6101fc60048036038101906101f7919061256e565b610769565b6040516102099190612aef565b60405180910390f35b61022c600480360381019061022791906124ef565b61080e565b6040516102399190612d31565b60405180910390f35b61025c60048036038101906102579190612431565b610873565b6040516102699190612a7b565b60405180910390f35b61027a610a24565b005b610284610aac565b604051610291919061299e565b60405180910390f35b6102b460048036038101906102af91906125eb565b610ad6565b005b6102d060048036038101906102cb91906123b9565b610b3a565b005b6102ec60048036038101906102e7919061256e565b610cbb565b6040516102f99190612ad4565b60405180910390f35b61030a610ce1565b604051610317919061299e565b60405180910390f35b610328610d07565b604051610335919061299e565b60405180910390f35b6103586004803603810190610353919061222f565b610d31565b6040516103659190612ad4565b60405180910390f35b6103886004803603810190610383919061232a565b610dc5565b005b6103a4600480360381019061039f9190612206565b610e66565b005b60008073ffffffffffffffffffffffffffffffffffffffff168373ffffffffffffffffffffffffffffffffffffffff161415610417576040517f08c379a000000000000000000000000000000000000000000000000000000000815260040161040e90612b71565b60405180910390fd5b60008083815260200190815260200160002060008473ffffffffffffffffffffffffffffffffffffffff1673ffffffffffffffffffffffffffffffffffffffff16815260200190815260200160002054905092915050565b60007fd9b67a26000000000000000000000000000000000000000000000000000000007bffffffffffffffffffffffffffffffffffffffffffffffffffffffff1916827bffffffffffffffffffffffffffffffffffffffffffffffffffffffff1916148061053a57507f0e89341c000000000000000000000000000000000000000000000000000000007bffffffffffffffffffffffffffffffffffffffffffffffffffffffff1916827bffffffffffffffffffffffffffffffffffffffffffffffffffffffff1916145b8061054a575061054982610f5e565b5b9050919050565b60606002805461056090612fd1565b80601f016020809104026020016040519081016040528092919081815260200182805461058c90612fd1565b80156105d95780601f106105ae576101008083540402835291602001916105d9565b820191906000526020600020905b8154815290600101906020018083116105bc57829003601f168201915b50505050509050919050565b60006105f083610cbb565b90506001151581151514610639576040517f08c379a000000000000000000000000000000000000000000000000000000000815260040161063090612b51565b60405180910390fd5b600060066000858152602001908152602001600020805461065990612fd1565b90501461069b576040517f08c379a000000000000000000000000000000000000000000000000000000000815260040161069290612c91565b60405180910390fd5b816006600085815260200190815260200160002090805190602001906106c2929190611efe565b50505050565b6106d0610fc8565b73ffffffffffffffffffffffffffffffffffffffff168573ffffffffffffffffffffffffffffffffffffffff161480610716575061071585610710610fc8565b610d31565b5b610755576040517f08c379a000000000000000000000000000000000000000000000000000000000815260040161074c90612c11565b60405180910390fd5b6107628585858585610fd0565b5050505050565b606060066000838152602001908152602001600020805461078990612fd1565b80601f01602080910402602001604051908101604052809291908181526020018280546107b590612fd1565b80156108025780601f106107d757610100808354040283529160200191610802565b820191906000526020600020905b8154815290600101906020018083116107e557829003601f168201915b50505050509050919050565b600061081a6004611330565b60006108266004611346565b905061083433828686611354565b610861600560009054906101000a900473ffffffffffffffffffffffffffffffffffffffff166001610b3a565b61086b81866105e5565b509392505050565b606081518351146108b9576040517f08c379a00000000000000000000000000000000000000000000000000000000081526004016108b090612cd1565b60405180910390fd5b6000835167ffffffffffffffff8111156108fc577f4e487b7100000000000000000000000000000000000000000000000000000000600052604160045260246000fd5b60405190808252806020026020018201604052801561092a5781602001602082028036833780820191505090505b50905060005b8451811015610a19576109c3858281518110610975577f4e487b7100000000000000000000000000000000000000000000000000000000600052603260045260246000fd5b60200260200101518583815181106109b6577f4e487b7100000000000000000000000000000000000000000000000000000000600052603260045260246000fd5b60200260200101516103a6565b8282815181106109fc577f4e487b7100000000000000000000000000000000000000000000000000000000600052603260045260246000fd5b60200260200101818152505080610a1290613034565b9050610930565b508091505092915050565b610a2c610fc8565b73ffffffffffffffffffffffffffffffffffffffff16610a4a610aac565b73ffffffffffffffffffffffffffffffffffffffff1614610aa0576040517f08c379a0000000000000000000000000000000000000000000000000000000008152600401610a9790612c71565b60405180910390fd5b610aaa60006114ea565b565b6000600360009054906101000a900473ffffffffffffffffffffffffffffffffffffffff16905090565b6000610ae183610cbb565b90506001151581151514610b2a576040517f08c379a0000000000000000000000000000000000000000000000000000000008152600401610b2190612b51565b60405180910390fd5b610b353384846115b0565b505050565b8173ffffffffffffffffffffffffffffffffffffffff16610b59610fc8565b73ffffffffffffffffffffffffffffffffffffffff161415610bb0576040517f08c379a0000000000000000000000000000000000000000000000000000000008152600401610ba790612cb1565b60405180910390fd5b8060016000610bbd610fc8565b73ffffffffffffffffffffffffffffffffffffffff1673ffffffffffffffffffffffffffffffffffffffff16815260200190815260200160002060008473ffffffffffffffffffffffffffffffffffffffff1673ffffffffffffffffffffffffffffffffffffffff16815260200190815260200160002060006101000a81548160ff0219169083151502179055508173ffffffffffffffffffffffffffffffffffffffff16610c6a610fc8565b73ffffffffffffffffffffffffffffffffffffffff167f17307eab39ab6107e8899845ad3d59bd9653f200f220920489ca2b5937696c3183604051610caf9190612ad4565b60405180910390a35050565b600080610cc833846103a6565b1115610cd75760019050610cdc565b600090505b919050565b600560009054906101000a900473ffffffffffffffffffffffffffffffffffffffff1681565b6000600560009054906101000a900473ffffffffffffffffffffffffffffffffffffffff16905090565b6000600160008473ffffffffffffffffffffffffffffffffffffffff1673ffffffffffffffffffffffffffffffffffffffff16815260200190815260200160002060008373ffffffffffffffffffffffffffffffffffffffff1673ffffffffffffffffffffffffffffffffffffffff16815260200190815260200160002060009054906101000a900460ff16905092915050565b610dcd610fc8565b73ffffffffffffffffffffffffffffffffffffffff168573ffffffffffffffffffffffffffffffffffffffff161480610e135750610e1285610e0d610fc8565b610d31565b5b610e52576040517f08c379a0000000000000000000000000000000000000000000000000000000008152600401610e4990612bd1565b60405180910390fd5b610e5f85858585856117cd565b5050505050565b610e6e610fc8565b73ffffffffffffffffffffffffffffffffffffffff16610e8c610aac565b73ffffffffffffffffffffffffffffffffffffffff1614610ee2576040517f08c379a0000000000000000000000000000000000000000000000000000000008152600401610ed990612c71565b60405180910390fd5b600073ffffffffffffffffffffffffffffffffffffffff168173ffffffffffffffffffffffffffffffffffffffff161415610f52576040517f08c379a0000000000000000000000000000000000000000000000000000000008152600401610f4990612b91565b60405180910390fd5b610f5b816114ea565b50565b60007f01ffc9a7000000000000000000000000000000000000000000000000000000007bffffffffffffffffffffffffffffffffffffffffffffffffffffffff1916827bffffffffffffffffffffffffffffffffffffffffffffffffffffffff1916149050919050565b600033905090565b8151835114611014576040517f08c379a000000000000000000000000000000000000000000000000000000000815260040161100b90612cf1565b60405180910390fd5b600073ffffffffffffffffffffffffffffffffffffffff168473ffffffffffffffffffffffffffffffffffffffff161415611084576040517f08c379a000000000000000000000000000000000000000000000000000000000815260040161107b90612bf1565b60405180910390fd5b600061108e610fc8565b905061109e818787878787611a4f565b60005b845181101561129b5760008582815181106110e5577f4e487b7100000000000000000000000000000000000000000000000000000000600052603260045260246000fd5b60200260200101519050600085838151811061112a577f4e487b7100000000000000000000000000000000000000000000000000000000600052603260045260246000fd5b60200260200101519050600080600084815260200190815260200160002060008b73ffffffffffffffffffffffffffffffffffffffff1673ffffffffffffffffffffffffffffffffffffffff168152602001908152602001600020549050818110156111cb576040517f08c379a00000000000000000000000000000000000000000000000000000000081526004016111c290612c51565b60405180910390fd5b81810360008085815260200190815260200160002060008c73ffffffffffffffffffffffffffffffffffffffff1673ffffffffffffffffffffffffffffffffffffffff168152602001908152602001600020819055508160008085815260200190815260200160002060008b73ffffffffffffffffffffffffffffffffffffffff1673ffffffffffffffffffffffffffffffffffffffff16815260200190815260200160002060008282546112809190612ec5565b925050819055505050508061129490613034565b90506110a1565b508473ffffffffffffffffffffffffffffffffffffffff168673ffffffffffffffffffffffffffffffffffffffff168273ffffffffffffffffffffffffffffffffffffffff167f4a39dc06d4c0dbc64b70af90fd698a233a518aa5d07e595d983b8c0526c8f7fb8787604051611312929190612a9d565b60405180910390a4611328818787878787611a57565b505050505050565b6001816000016000828254019250508190555050565b600081600001549050919050565b600073ffffffffffffffffffffffffffffffffffffffff168473ffffffffffffffffffffffffffffffffffffffff1614156113c4576040517f08c379a00000000000000000000000000000000000000000000000000000000081526004016113bb90612d11565b60405180910390fd5b60006113ce610fc8565b90506113ef816000876113e088611c3e565b6113e988611c3e565b87611a4f565b8260008086815260200190815260200160002060008773ffffffffffffffffffffffffffffffffffffffff1673ffffffffffffffffffffffffffffffffffffffff168152602001908152602001600020600082825461144e9190612ec5565b925050819055508473ffffffffffffffffffffffffffffffffffffffff16600073ffffffffffffffffffffffffffffffffffffffff168273ffffffffffffffffffffffffffffffffffffffff167fc3d58168c5ae7397731d063d5bbf3d657854427343f4c083240f7aacaa2d0f6287876040516114cc929190612d4c565b60405180910390a46114e381600087878787611d04565b5050505050565b6000600360009054906101000a900473ffffffffffffffffffffffffffffffffffffffff16905081600360006101000a81548173ffffffffffffffffffffffffffffffffffffffff021916908373ffffffffffffffffffffffffffffffffffffffff1602179055508173ffffffffffffffffffffffffffffffffffffffff168173ffffffffffffffffffffffffffffffffffffffff167f8be0079c531659141344cd1fd0a4f28419497f9722a3daafe3b4186f6b6457e060405160405180910390a35050565b600073ffffffffffffffffffffffffffffffffffffffff168373ffffffffffffffffffffffffffffffffffffffff161415611620576040517f08c379a000000000000000000000000000000000000000000000000000000000815260040161161790612c31565b60405180910390fd5b600061162a610fc8565b905061165a8185600061163c87611c3e565b61164587611c3e565b60405180602001604052806000815250611a4f565b600080600085815260200190815260200160002060008673ffffffffffffffffffffffffffffffffffffffff1673ffffffffffffffffffffffffffffffffffffffff168152602001908152602001600020549050828110156116f1576040517f08c379a00000000000000000000000000000000000000000000000000000000081526004016116e890612bb1565b60405180910390fd5b82810360008086815260200190815260200160002060008773ffffffffffffffffffffffffffffffffffffffff1673ffffffffffffffffffffffffffffffffffffffff16815260200190815260200160002081905550600073ffffffffffffffffffffffffffffffffffffffff168573ffffffffffffffffffffffffffffffffffffffff168373ffffffffffffffffffffffffffffffffffffffff167fc3d58168c5ae7397731d063d5bbf3d657854427343f4c083240f7aacaa2d0f6287876040516117be929190612d4c565b60405180910390a45050505050565b600073ffffffffffffffffffffffffffffffffffffffff168473ffffffffffffffffffffffffffffffffffffffff16141561183d576040517f08c379a000000000000000000000000000000000000000000000000000000000815260040161183490612bf1565b60405180910390fd5b6000611847610fc8565b905061186781878761185888611c3e565b61186188611c3e565b87611a4f565b600080600086815260200190815260200160002060008873ffffffffffffffffffffffffffffffffffffffff1673ffffffffffffffffffffffffffffffffffffffff168152602001908152602001600020549050838110156118fe576040517f08c379a00000000000000000000000000000000000000000000000000000000081526004016118f590612c51565b60405180910390fd5b83810360008087815260200190815260200160002060008973ffffffffffffffffffffffffffffffffffffffff1673ffffffffffffffffffffffffffffffffffffffff168152602001908152602001600020819055508360008087815260200190815260200160002060008873ffffffffffffffffffffffffffffffffffffffff1673ffffffffffffffffffffffffffffffffffffffff16815260200190815260200160002060008282546119b39190612ec5565b925050819055508573ffffffffffffffffffffffffffffffffffffffff168773ffffffffffffffffffffffffffffffffffffffff168373ffffffffffffffffffffffffffffffffffffffff167fc3d58168c5ae7397731d063d5bbf3d657854427343f4c083240f7aacaa2d0f628888604051611a30929190612d4c565b60405180910390a4611a46828888888888611d04565b50505050505050565b505050505050565b611a768473ffffffffffffffffffffffffffffffffffffffff16611eeb565b15611c36578373ffffffffffffffffffffffffffffffffffffffff1663bc197c8187878686866040518663ffffffff1660e01b8152600401611abc9594939291906129b9565b602060405180830381600087803b158015611ad657600080fd5b505af1925050508015611b0757506040513d601f19601f82011682018060405250810190611b0491906124c6565b60015b611bad57611b1361310a565b806308c379a01415611b705750611b2861363d565b80611b335750611b72565b806040517f08c379a0000000000000000000000000000000000000000000000000000000008152600401611b679190612aef565b60405180910390fd5b505b6040517f08c379a0000000000000000000000000000000000000000000000000000000008152600401611ba490612b11565b60405180910390fd5b63bc197c8160e01b7bffffffffffffffffffffffffffffffffffffffffffffffffffffffff1916817bffffffffffffffffffffffffffffffffffffffffffffffffffffffff191614611c34576040517f08c379a0000000000000000000000000000000000000000000000000000000008152600401611c2b90612b31565b60405180910390fd5b505b505050505050565b60606000600167ffffffffffffffff811115611c83577f4e487b7100000000000000000000000000000000000000000000000000000000600052604160045260246000fd5b604051908082528060200260200182016040528015611cb15781602001602082028036833780820191505090505b5090508281600081518110611cef577f4e487b7100000000000000000000000000000000000000000000000000000000600052603260045260246000fd5b60200260200101818152505080915050919050565b611d238473ffffffffffffffffffffffffffffffffffffffff16611eeb565b15611ee3578373ffffffffffffffffffffffffffffffffffffffff1663f23a6e6187878686866040518663ffffffff1660e01b8152600401611d69959493929190612a21565b602060405180830381600087803b158015611d8357600080fd5b505af1925050508015611db457506040513d601f19601f82011682018060405250810190611db191906124c6565b60015b611e5a57611dc061310a565b806308c379a01415611e1d5750611dd561363d565b80611de05750611e1f565b806040517f08c379a0000000000000000000000000000000000000000000000000000000008152600401611e149190612aef565b60405180910390fd5b505b6040517f08c379a0000000000000000000000000000000000000000000000000000000008152600401611e5190612b11565b60405180910390fd5b63f23a6e6160e01b7bffffffffffffffffffffffffffffffffffffffffffffffffffffffff1916817bffffffffffffffffffffffffffffffffffffffffffffffffffffffff191614611ee1576040517f08c379a0000000000000000000000000000000000000000000000000000000008152600401611ed890612b31565b60405180910390fd5b505b505050505050565b600080823b905060008111915050919050565b828054611f0a90612fd1565b90600052602060002090601f016020900481019282611f2c5760008555611f73565b82601f10611f4557805160ff1916838001178555611f73565b82800160010185558215611f73579182015b82811115611f72578251825591602001919060010190611f57565b5b509050611f809190611f84565b5090565b5b80821115611f9d576000816000905550600101611f85565b5090565b6000611fb4611faf84612d9a565b612d75565b90508083825260208201905082856020860282011115611fd357600080fd5b60005b858110156120035781611fe988826120f5565b845260208401935060208301925050600181019050611fd6565b5050509392505050565b600061202061201b84612dc6565b612d75565b9050808382526020820190508285602086028201111561203f57600080fd5b60005b8581101561206f578161205588826121f1565b845260208401935060208301925050600181019050612042565b5050509392505050565b600061208c61208784612df2565b612d75565b9050828152602081018484840111156120a457600080fd5b6120af848285612f8f565b509392505050565b60006120ca6120c584612e23565b612d75565b9050828152602081018484840111156120e257600080fd5b6120ed848285612f8f565b509392505050565b600081359050612104816136d3565b92915050565b600082601f83011261211b57600080fd5b813561212b848260208601611fa1565b91505092915050565b600082601f83011261214557600080fd5b813561215584826020860161200d565b91505092915050565b60008135905061216d816136ea565b92915050565b60008135905061218281613701565b92915050565b60008151905061219781613701565b92915050565b600082601f8301126121ae57600080fd5b81356121be848260208601612079565b91505092915050565b600082601f8301126121d857600080fd5b81356121e88482602086016120b7565b91505092915050565b60008135905061220081613718565b92915050565b60006020828403121561221857600080fd5b6000612226848285016120f5565b91505092915050565b6000806040838503121561224257600080fd5b6000612250858286016120f5565b9250506020612261858286016120f5565b9150509250929050565b600080600080600060a0868803121561228357600080fd5b6000612291888289016120f5565b95505060206122a2888289016120f5565b945050604086013567ffffffffffffffff8111156122bf57600080fd5b6122cb88828901612134565b935050606086013567ffffffffffffffff8111156122e857600080fd5b6122f488828901612134565b925050608086013567ffffffffffffffff81111561231157600080fd5b61231d8882890161219d565b9150509295509295909350565b600080600080600060a0868803121561234257600080fd5b6000612350888289016120f5565b9550506020612361888289016120f5565b9450506040612372888289016121f1565b9350506060612383888289016121f1565b925050608086013567ffffffffffffffff8111156123a057600080fd5b6123ac8882890161219d565b9150509295509295909350565b600080604083850312156123cc57600080fd5b60006123da858286016120f5565b92505060206123eb8582860161215e565b9150509250929050565b6000806040838503121561240857600080fd5b6000612416858286016120f5565b9250506020612427858286016121f1565b9150509250929050565b6000806040838503121561244457600080fd5b600083013567ffffffffffffffff81111561245e57600080fd5b61246a8582860161210a565b925050602083013567ffffffffffffffff81111561248757600080fd5b61249385828601612134565b9150509250929050565b6000602082840312156124af57600080fd5b60006124bd84828501612173565b91505092915050565b6000602082840312156124d857600080fd5b60006124e684828501612188565b91505092915050565b60008060006060848603121561250457600080fd5b600084013567ffffffffffffffff81111561251e57600080fd5b61252a868287016121c7565b935050602061253b868287016121f1565b925050604084013567ffffffffffffffff81111561255857600080fd5b6125648682870161219d565b9150509250925092565b60006020828403121561258057600080fd5b600061258e848285016121f1565b91505092915050565b600080604083850312156125aa57600080fd5b60006125b8858286016121f1565b925050602083013567ffffffffffffffff8111156125d557600080fd5b6125e1858286016121c7565b9150509250929050565b600080604083850312156125fe57600080fd5b600061260c858286016121f1565b925050602061261d858286016121f1565b9150509250929050565b60006126338383612980565b60208301905092915050565b61264881612f1b565b82525050565b600061265982612e64565b6126638185612e92565b935061266e83612e54565b8060005b8381101561269f5781516126868882612627565b975061269183612e85565b925050600181019050612672565b5085935050505092915050565b6126b581612f2d565b82525050565b60006126c682612e6f565b6126d08185612ea3565b93506126e0818560208601612f9e565b6126e98161312c565b840191505092915050565b60006126ff82612e7a565b6127098185612eb4565b9350612719818560208601612f9e565b6127228161312c565b840191505092915050565b600061273a603483612eb4565b91506127458261314a565b604082019050919050565b600061275d602883612eb4565b915061276882613199565b604082019050919050565b6000612780602d83612eb4565b915061278b826131e8565b604082019050919050565b60006127a3602b83612eb4565b91506127ae82613237565b604082019050919050565b60006127c6602683612eb4565b91506127d182613286565b604082019050919050565b60006127e9602483612eb4565b91506127f4826132d5565b604082019050919050565b600061280c602983612eb4565b915061281782613324565b604082019050919050565b600061282f602583612eb4565b915061283a82613373565b604082019050919050565b6000612852603283612eb4565b915061285d826133c2565b604082019050919050565b6000612875602383612eb4565b915061288082613411565b604082019050919050565b6000612898602a83612eb4565b91506128a382613460565b604082019050919050565b60006128bb602083612eb4565b91506128c6826134af565b602082019050919050565b60006128de601583612eb4565b91506128e9826134d8565b602082019050919050565b6000612901602983612eb4565b915061290c82613501565b604082019050919050565b6000612924602983612eb4565b915061292f82613550565b604082019050919050565b6000612947602883612eb4565b91506129528261359f565b604082019050919050565b600061296a602183612eb4565b9150612975826135ee565b604082019050919050565b61298981612f85565b82525050565b61299881612f85565b82525050565b60006020820190506129b3600083018461263f565b92915050565b600060a0820190506129ce600083018861263f565b6129db602083018761263f565b81810360408301526129ed818661264e565b90508181036060830152612a01818561264e565b90508181036080830152612a1581846126bb565b90509695505050505050565b600060a082019050612a36600083018861263f565b612a43602083018761263f565b612a50604083018661298f565b612a5d606083018561298f565b8181036080830152612a6f81846126bb565b90509695505050505050565b60006020820190508181036000830152612a95818461264e565b905092915050565b60006040820190508181036000830152612ab7818561264e565b90508181036020830152612acb818461264e565b90509392505050565b6000602082019050612ae960008301846126ac565b92915050565b60006020820190508181036000830152612b0981846126f4565b905092915050565b60006020820190508181036000830152612b2a8161272d565b9050919050565b60006020820190508181036000830152612b4a81612750565b9050919050565b60006020820190508181036000830152612b6a81612773565b9050919050565b60006020820190508181036000830152612b8a81612796565b9050919050565b60006020820190508181036000830152612baa816127b9565b9050919050565b60006020820190508181036000830152612bca816127dc565b9050919050565b60006020820190508181036000830152612bea816127ff565b9050919050565b60006020820190508181036000830152612c0a81612822565b9050919050565b60006020820190508181036000830152612c2a81612845565b9050919050565b60006020820190508181036000830152612c4a81612868565b9050919050565b60006020820190508181036000830152612c6a8161288b565b9050919050565b60006020820190508181036000830152612c8a816128ae565b9050919050565b60006020820190508181036000830152612caa816128d1565b9050919050565b60006020820190508181036000830152612cca816128f4565b9050919050565b60006020820190508181036000830152612cea81612917565b9050919050565b60006020820190508181036000830152612d0a8161293a565b9050919050565b60006020820190508181036000830152612d2a8161295d565b9050919050565b6000602082019050612d46600083018461298f565b92915050565b6000604082019050612d61600083018561298f565b612d6e602083018461298f565b9392505050565b6000612d7f612d90565b9050612d8b8282613003565b919050565b6000604051905090565b600067ffffffffffffffff821115612db557612db46130db565b5b602082029050602081019050919050565b600067ffffffffffffffff821115612de157612de06130db565b5b602082029050602081019050919050565b600067ffffffffffffffff821115612e0d57612e0c6130db565b5b612e168261312c565b9050602081019050919050565b600067ffffffffffffffff821115612e3e57612e3d6130db565b5b612e478261312c565b9050602081019050919050565b6000819050602082019050919050565b600081519050919050565b600081519050919050565b600081519050919050565b6000602082019050919050565b600082825260208201905092915050565b600082825260208201905092915050565b600082825260208201905092915050565b6000612ed082612f85565b9150612edb83612f85565b9250827fffffffffffffffffffffffffffffffffffffffffffffffffffffffffffffffff03821115612f1057612f0f61307d565b5b828201905092915050565b6000612f2682612f65565b9050919050565b60008115159050919050565b60007fffffffff0000000000000000000000000000000000000000000000000000000082169050919050565b600073ffffffffffffffffffffffffffffffffffffffff82169050919050565b6000819050919050565b82818337600083830152505050565b60005b83811015612fbc578082015181840152602081019050612fa1565b83811115612fcb576000848401525b50505050565b60006002820490506001821680612fe957607f821691505b60208210811415612ffd57612ffc6130ac565b5b50919050565b61300c8261312c565b810181811067ffffffffffffffff8211171561302b5761302a6130db565b5b80604052505050565b600061303f82612f85565b91507fffffffffffffffffffffffffffffffffffffffffffffffffffffffffffffffff8214156130725761307161307d565b5b600182019050919050565b7f4e487b7100000000000000000000000000000000000000000000000000000000600052601160045260246000fd5b7f4e487b7100000000000000000000000000000000000000000000000000000000600052602260045260246000fd5b7f4e487b7100000000000000000000000000000000000000000000000000000000600052604160045260246000fd5b600060033d11156131295760046000803e61312660005161313d565b90505b90565b6000601f19601f8301169050919050565b60008160e01c9050919050565b7f455243313135353a207472616e7366657220746f206e6f6e204552433131353560008201527f526563656976657220696d706c656d656e746572000000000000000000000000602082015250565b7f455243313135353a204552433131353552656365697665722072656a6563746560008201527f6420746f6b656e73000000000000000000000000000000000000000000000000602082015250565b7f46756e6374696f6e2063616c6c6572206973206e6f7420746865206f776e657260008201527f206f662074686520746f6b656e00000000000000000000000000000000000000602082015250565b7f455243313135353a2062616c616e636520717565727920666f7220746865207a60008201527f65726f2061646472657373000000000000000000000000000000000000000000602082015250565b7f4f776e61626c653a206e6577206f776e657220697320746865207a65726f206160008201527f6464726573730000000000000000000000000000000000000000000000000000602082015250565b7f455243313135353a206275726e20616d6f756e7420657863656564732062616c60008201527f616e636500000000000000000000000000000000000000000000000000000000602082015250565b7f455243313135353a2063616c6c6572206973206e6f74206f776e6572206e6f7260008201527f20617070726f7665640000000000000000000000000000000000000000000000602082015250565b7f455243313135353a207472616e7366657220746f20746865207a65726f20616460008201527f6472657373000000000000000000000000000000000000000000000000000000602082015250565b7f455243313135353a207472616e736665722063616c6c6572206973206e6f742060008201527f6f776e6572206e6f7220617070726f7665640000000000000000000000000000602082015250565b7f455243313135353a206275726e2066726f6d20746865207a65726f206164647260008201527f6573730000000000000000000000000000000000000000000000000000000000602082015250565b7f455243313135353a20696e73756666696369656e742062616c616e636520666f60008201527f72207472616e7366657200000000000000000000000000000000000000000000602082015250565b7f4f776e61626c653a2063616c6c6572206973206e6f7420746865206f776e6572600082015250565b7f43616e6e6f7420736574205552492074776963652e0000000000000000000000600082015250565b7f455243313135353a2073657474696e6720617070726f76616c2073746174757360008201527f20666f722073656c660000000000000000000000000000000000000000000000602082015250565b7f455243313135353a206163636f756e747320616e6420696473206c656e67746860008201527f206d69736d617463680000000000000000000000000000000000000000000000602082015250565b7f455243313135353a2069647320616e6420616d6f756e7473206c656e6774682060008201527f6d69736d61746368000000000000000000000000000000000000000000000000602082015250565b7f455243313135353a206d696e7420746f20746865207a65726f2061646472657360008201527f7300000000000000000000000000000000000000000000000000000000000000602082015250565b600060443d101561364d576136d0565b613655612d90565b60043d036004823e80513d602482011167ffffffffffffffff8211171561367d5750506136d0565b808201805167ffffffffffffffff81111561369b57505050506136d0565b80602083010160043d0385018111156136b85750505050506136d0565b6136c782602001850186613003565b82955050505050505b90565b6136dc81612f1b565b81146136e757600080fd5b50565b6136f381612f2d565b81146136fe57600080fd5b50565b61370a81612f39565b811461371557600080fd5b50565b61372181612f85565b811461372c57600080fd5b5056fea2646970667358221220a297381566db7ec9eac89d05948d721bf9f3b1342febb101d4932b2a1d04accb64736f6c63430008030033",
    "linkReferences": {},
    "deployedLinkReferences": {}
}